:100000000C9434000C943E000C943E000C943E0082
:100010000C943E000C943E000C943E000C943E0068
:100020000C943E000C943E000C943E000C943E0058
:100030000C943E000C943E000C943E000C943E0048
:100040000C943E000C943E000C943E000C943E0038
:100050000C943E000C943E000C943E000C943E0028
:100060000C943E000C943E0011241FBECFEFD8E04C
:10007000DEBFCDBF0E9487000C9490000C9400005E
:1000800084B1836284B9299A089552985A9A08953E
:1000900089B182FB882780F9089595B121E030E08D
:1000A00001C0220F8A95EAF7292B25B9089595B149
:1000B00021E030E001C0220F8A95EAF7209529233C
:1000C00025B908950E9440000E94450085E00E94E5
:1000D0004D0081E090E008950E944800882381F05F
:1000E00081E00E94570080E00E944D002FEF80E7E2
:1000F00092E0215080409040E1F700C00000ECCF3A
:1001000081E00E944D0080E00E945700E5CF0E94F0
:100110006200892B11F00E946C0080E090E008954D
:04012000F894FFCF81
:00000001FF
