:100000000C9434000C943E000C943E000C943E0082
:100010000C943E000C943E000C943E000C943E0068
:100020000C943E000C943E000C943E000C943E0058
:100030000C943E000C943E000C943E000C943E0048
:100040000C943E000C943E000C943E000C943E0038
:100050000C943E000C943E000C943E000C943E0028
:100060000C943E000C943E0011241FBECFEFD8E04C
:10007000DEBFCDBF0E9489000C9492000C9400005A
:1000800084B1836284B9299A089552985A9A08953E
:1000900089B182FB882780F991E08927089595B17D
:1000A00021E030E001C0220F8A95EAF7292B25B91B
:1000B000089595B121E030E001C0220F8A95EAF75A
:1000C0002095292325B908950E9440000E944500EB
:1000D00085E00E944F0081E090E008950E94480072
:1000E000882381F081E00E94590080E00E944F0047
:1000F0002FEF80E792E0215080409040E1F700C070
:100100000000ECCF81E00E944F0080E00E94590087
:10011000E5CF0E946400892B11F00E946E0080E000
:0801200090E00895F894FFCF70
:00000001FF
