:100000000C9434000C9446000C9446000C9446006A
:100010000C9446000C9446000C9446000C94460048
:100020000C9446000C9446000C9446000C94460038
:100030000C9446000C9446000C9446000C94460028
:100040000C9446000C9446000C9446000C94460018
:100050000C9446000C9446000C9446000C94460008
:100060000C9446000C94460011241FBECFEFD8E03C
:10007000DEBFCDBF21E0A0E0B1E001C01D92A13004
:10008000B207E1F70E949A000C94A3000C940000C0
:1000900087B18F6087B988B1807F88B908958AB1A8
:1000A00080668AB98BB180668BB9089517BC17BC7E
:1000B00018BC18BC84B5806A84BD84B58F7A84BDB1
:1000C00084B5816084BD84B58D7F84BD85B5877F0F
:1000D00085BD85B5877F85BD85B5836085BD85B5C3
:1000E0008B7F85BD089588B1807F88B988B186608F
:1000F00088B9089587BD68BD08950E9448000E9490
:100100004F000E94560081E090E008950E94730025
:1001100080910001682F80950E947A0080910001F3
:100120008F5F809300018FE39CE90197F1F700C096
:100130000000EECF0E947D00892B11F00E94860006
:0A01400080E090E00895F894FFCFEE
:00000001FF
